{"abi":[{"type":"constructor","inputs":[{"name":"_asset","type":"address","internalType":"contract IERC20"},{"name":"_name","type":"string","internalType":"string"},{"name":"_symbol","type":"string","internalType":"string"}],"stateMutability":"nonpayable"},{"type":"function","name":"APY_BPS","inputs":[],"outputs":[{"name":"","type":"uint256","internalType":"uint256"}],"stateMutability":"view"},{"type":"function","name":"allowance","inputs":[{"name":"owner","type":"address","internalType":"address"},{"name":"spender","type":"address","internalType":"address"}],"outputs":[{"name":"","type":"uint256","internalType":"uint256"}],"stateMutability":"view"},{"type":"function","name":"approve","inputs":[{"name":"spender","type":"address","internalType":"address"},{"name":"value","type":"uint256","internalType":"uint256"}],"outputs":[{"name":"","type":"bool","internalType":"bool"}],"stateMutability":"nonpayable"},{"type":"function","name":"asset","inputs":[],"outputs":[{"name":"","type":"address","internalType":"address"}],"stateMutability":"view"},{"type":"function","name":"balanceOf","inputs":[{"name":"account","type":"address","internalType":"address"}],"outputs":[{"name":"","type":"uint256","internalType":"uint256"}],"stateMutability":"view"},{"type":"function","name":"convertToAssets","inputs":[{"name":"shares","type":"uint256","internalType":"uint256"}],"outputs":[{"name":"","type":"uint256","internalType":"uint256"}],"stateMutability":"view"},{"type":"function","name":"convertToShares","inputs":[{"name":"assets","type":"uint256","internalType":"uint256"}],"outputs":[{"name":"","type":"uint256","internalType":"uint256"}],"stateMutability":"view"},{"type":"function","name":"decimals","inputs":[],"outputs":[{"name":"","type":"uint8","internalType":"uint8"}],"stateMutability":"view"},{"type":"function","name":"deposit","inputs":[{"name":"assets","type":"uint256","internalType":"uint256"},{"name":"receiver","type":"address","internalType":"address"}],"outputs":[{"name":"shares","type":"uint256","internalType":"uint256"}],"stateMutability":"nonpayable"},{"type":"function","name":"depositTimestamps","inputs":[{"name":"","type":"address","internalType":"address"}],"outputs":[{"name":"","type":"uint256","internalType":"uint256"}],"stateMutability":"view"},{"type":"function","name":"getPendingYield","inputs":[{"name":"user","type":"address","internalType":"address"}],"outputs":[{"name":"pendingYield","type":"uint256","internalType":"uint256"}],"stateMutability":"view"},{"type":"function","name":"getUserPosition","inputs":[{"name":"user","type":"address","internalType":"address"}],"outputs":[{"name":"shares","type":"uint256","internalType":"uint256"},{"name":"assets","type":"uint256","internalType":"uint256"},{"name":"depositTime","type":"uint256","internalType":"uint256"},{"name":"pendingYield","type":"uint256","internalType":"uint256"}],"stateMutability":"view"},{"type":"function","name":"getVaultStats","inputs":[],"outputs":[{"name":"totalAssets_","type":"uint256","internalType":"uint256"},{"name":"totalSupply_","type":"uint256","internalType":"uint256"},{"name":"apy","type":"uint256","internalType":"uint256"}],"stateMutability":"view"},{"type":"function","name":"lastClaimTimestamp","inputs":[{"name":"","type":"address","internalType":"address"}],"outputs":[{"name":"","type":"uint256","internalType":"uint256"}],"stateMutability":"view"},{"type":"function","name":"maxDeposit","inputs":[{"name":"","type":"address","internalType":"address"}],"outputs":[{"name":"","type":"uint256","internalType":"uint256"}],"stateMutability":"view"},{"type":"function","name":"maxMint","inputs":[{"name":"","type":"address","internalType":"address"}],"outputs":[{"name":"","type":"uint256","internalType":"uint256"}],"stateMutability":"view"},{"type":"function","name":"maxRedeem","inputs":[{"name":"owner","type":"address","internalType":"address"}],"outputs":[{"name":"","type":"uint256","internalType":"uint256"}],"stateMutability":"view"},{"type":"function","name":"maxWithdraw","inputs":[{"name":"owner","type":"address","internalType":"address"}],"outputs":[{"name":"","type":"uint256","internalType":"uint256"}],"stateMutability":"view"},{"type":"function","name":"mint","inputs":[{"name":"shares","type":"uint256","internalType":"uint256"},{"name":"receiver","type":"address","internalType":"address"}],"outputs":[{"name":"","type":"uint256","internalType":"uint256"}],"stateMutability":"nonpayable"},{"type":"function","name":"name","inputs":[],"outputs":[{"name":"","type":"string","internalType":"string"}],"stateMutability":"view"},{"type":"function","name":"owner","inputs":[],"outputs":[{"name":"","type":"address","internalType":"address"}],"stateMutability":"view"},{"type":"function","name":"previewDeposit","inputs":[{"name":"assets","type":"uint256","internalType":"uint256"}],"outputs":[{"name":"","type":"uint256","internalType":"uint256"}],"stateMutability":"view"},{"type":"function","name":"previewMint","inputs":[{"name":"shares","type":"uint256","internalType":"uint256"}],"outputs":[{"name":"","type":"uint256","internalType":"uint256"}],"stateMutability":"view"},{"type":"function","name":"previewRedeem","inputs":[{"name":"shares","type":"uint256","internalType":"uint256"}],"outputs":[{"name":"","type":"uint256","internalType":"uint256"}],"stateMutability":"view"},{"type":"function","name":"previewWithdraw","inputs":[{"name":"assets","type":"uint256","internalType":"uint256"}],"outputs":[{"name":"","type":"uint256","internalType":"uint256"}],"stateMutability":"view"},{"type":"function","name":"redeem","inputs":[{"name":"shares","type":"uint256","internalType":"uint256"},{"name":"receiver","type":"address","internalType":"address"},{"name":"owner","type":"address","internalType":"address"}],"outputs":[{"name":"","type":"uint256","internalType":"uint256"}],"stateMutability":"nonpayable"},{"type":"function","name":"renounceOwnership","inputs":[],"outputs":[],"stateMutability":"nonpayable"},{"type":"function","name":"symbol","inputs":[],"outputs":[{"name":"","type":"string","internalType":"string"}],"stateMutability":"view"},{"type":"function","name":"totalAssets","inputs":[],"outputs":[{"name":"","type":"uint256","internalType":"uint256"}],"stateMutability":"view"},{"type":"function","name":"totalSupply","inputs":[],"outputs":[{"name":"","type":"uint256","internalType":"uint256"}],"stateMutability":"view"},{"type":"function","name":"transfer","inputs":[{"name":"to","type":"address","internalType":"address"},{"name":"value","type":"uint256","internalType":"uint256"}],"outputs":[{"name":"","type":"bool","internalType":"bool"}],"stateMutability":"nonpayable"},{"type":"function","name":"transferFrom","inputs":[{"name":"from","type":"address","internalType":"address"},{"name":"to","type":"address","internalType":"address"},{"name":"value","type":"uint256","internalType":"uint256"}],"outputs":[{"name":"","type":"bool","internalType":"bool"}],"stateMutability":"nonpayable"},{"type":"function","name":"transferOwnership","inputs":[{"name":"newOwner","type":"address","internalType":"address"}],"outputs":[],"stateMutability":"nonpayable"},{"type":"function","name":"withdraw","inputs":[{"name":"assets","type":"uint256","internalType":"uint256"},{"name":"receiver","type":"address","internalType":"address"},{"name":"owner","type":"address","internalType":"address"}],"outputs":[{"name":"shares","type":"uint256","internalType":"uint256"}],"stateMutability":"nonpayable"},{"type":"event","name":"Approval","inputs":[{"name":"owner","type":"address","indexed":true,"internalType":"address"},{"name":"spender","type":"address","indexed":true,"internalType":"address"},{"name":"value","type":"uint256","indexed":false,"internalType":"uint256"}],"anonymous":false},{"type":"event","name":"Deposit","inputs":[{"name":"sender","type":"address","indexed":true,"internalType":"address"},{"name":"owner","type":"address","indexed":true,"internalType":"address"},{"name":"assets","type":"uint256","indexed":false,"internalType":"uint256"},{"name":"shares","type":"uint256","indexed":false,"internalType":"uint256"}],"anonymous":false},{"type":"event","name":"Deposited","inputs":[{"name":"user","type":"address","indexed":true,"internalType":"address"},{"name":"assets","type":"uint256","indexed":false,"internalType":"uint256"},{"name":"shares","type":"uint256","indexed":false,"internalType":"uint256"}],"anonymous":false},{"type":"event","name":"OwnershipTransferred","inputs":[{"name":"previousOwner","type":"address","indexed":true,"internalType":"address"},{"name":"newOwner","type":"address","indexed":true,"internalType":"address"}],"anonymous":false},{"type":"event","name":"Transfer","inputs":[{"name":"from","type":"address","indexed":true,"internalType":"address"},{"name":"to","type":"address","indexed":true,"internalType":"address"},{"name":"value","type":"uint256","indexed":false,"internalType":"uint256"}],"anonymous":false},{"type":"event","name":"Withdraw","inputs":[{"name":"sender","type":"address","indexed":true,"internalType":"address"},{"name":"receiver","type":"address","indexed":true,"internalType":"address"},{"name":"owner","type":"address","indexed":true,"internalType":"address"},{"name":"assets","type":"uint256","indexed":false,"internalType":"uint256"},{"name":"shares","type":"uint256","indexed":false,"internalType":"uint256"}],"anonymous":false},{"type":"event","name":"Withdrawn","inputs":[{"name":"user","type":"address","indexed":true,"internalType":"address"},{"name":"assets","type":"uint256","indexed":false,"internalType":"uint256"},{"name":"shares","type":"uint256","indexed":false,"internalType":"uint256"}],"anonymous":false},{"type":"error","name":"ERC20InsufficientAllowance","inputs":[{"name":"spender","type":"address","internalType":"address"},{"name":"allowance","type":"uint256","internalType":"uint256"},{"name":"needed","type":"uint256","internalType":"uint256"}]},{"type":"error","name":"ERC20InsufficientBalance","inputs":[{"name":"sender","type":"address","internalType":"address"},{"name":"balance","type":"uint256","internalType":"uint256"},{"name":"needed","type":"uint256","internalType":"uint256"}]},{"type":"error","name":"ERC20InvalidApprover","inputs":[{"name":"approver","type":"address","internalType":"address"}]},{"type":"error","name":"ERC20InvalidReceiver","inputs":[{"name":"receiver","type":"address","internalType":"address"}]},{"type":"error","name":"ERC20InvalidSender","inputs":[{"name":"sender","type":"address","internalType":"address"}]},{"type":"error","name":"ERC20InvalidSpender","inputs":[{"name":"spender","type":"address","internalType":"address"}]},{"type":"error","name":"ERC4626ExceededMaxDeposit","inputs":[{"name":"receiver","type":"address","internalType":"address"},{"name":"assets","type":"uint256","internalType":"uint256"},{"name":"max","type":"uint256","internalType":"uint256"}]},{"type":"error","name":"ERC4626ExceededMaxMint","inputs":[{"name":"receiver","type":"address","internalType":"address"},{"name":"shares","type":"uint256","internalType":"uint256"},{"name":"max","type":"uint256","internalType":"uint256"}]},{"type":"error","name":"ERC4626ExceededMaxRedeem","inputs":[{"name":"owner","type":"address","internalType":"address"},{"name":"shares","type":"uint256","internalType":"uint256"},{"name":"max","type":"uint256","internalType":"uint256"}]},{"type":"error","name":"ERC4626ExceededMaxWithdraw","inputs":[{"name":"owner","type":"address","internalType":"address"},{"name":"assets","type":"uint256","internalType":"uint256"},{"name":"max","type":"uint256","internalType":"uint256"}]},{"type":"error","name":"OwnableInvalidOwner","inputs":[{"name":"owner","type":"address","internalType":"address"}]},{"type":"error","name":"OwnableUnauthorizedAccount","inputs":[{"name":"account","type":"address","internalType":"address"}]},{"type":"error","name":"SafeERC20FailedOperation","inputs":[{"name":"token","type":"address","internalType":"address"}]}],"bytecode":{"object":"0x60c060405234801562000010575f80fd5b506040516200308b3803806200308b833981810160405281019062000036919062000525565b3383838381600390816200004b9190620007f3565b5080600490816200005d9190620007f3565b5050505f8062000073836200015960201b60201c565b91509150816200008557601262000087565b805b60ff1660a08160ff16815250508273ffffffffffffffffffffffffffffffffffffffff1660808173ffffffffffffffffffffffffffffffffffffffff16815250505050505f73ffffffffffffffffffffffffffffffffffffffff168173ffffffffffffffffffffffffffffffffffffffff16036200013e575f6040517f1e4fbdf7000000000000000000000000000000000000000000000000000000008152600401620001359190620008e8565b60405180910390fd5b6200014f816200023160201b60201c565b5050505062000903565b5f805f6200016c620002f460201b60201c565b90505f80620001cc8660405160240160405160208183030381529060405263313ce56760e01b6020820180517bffffffffffffffffffffffffffffffffffffffffffffffffffffffff8381831617835250505050620002fd60201b60201c565b5091509150620001e2836200031e60201b60201c565b8180156200020057506020620001fd6200032560201b60201c565b10155b801562000212575060ff8016815f1c11155b6200021f575f8062000225565b6001815f1c5b94509450505050915091565b5f60055f9054906101000a900473ffffffffffffffffffffffffffffffffffffffff1690508160055f6101000a81548173ffffffffffffffffffffffffffffffffffffffff021916908373ffffffffffffffffffffffffffffffffffffffff1602179055508173ffffffffffffffffffffffffffffffffffffffff168173ffffffffffffffffffffffffffffffffffffffff167f8be0079c531659141344cd1fd0a4f28419497f9722a3daafe3b4186f6b6457e060405160405180910390a35050565b5f604051905090565b5f805f60405f855160208701885afa92505f51915060205190509250925092565b8060405250565b5f3d905090565b5f604051905090565b5f80fd5b5f80fd5b5f73ffffffffffffffffffffffffffffffffffffffff82169050919050565b5f62000368826200033d565b9050919050565b5f6200037b826200035c565b9050919050565b6200038d816200036f565b811462000398575f80fd5b50565b5f81519050620003ab8162000382565b92915050565b5f80fd5b5f80fd5b5f601f19601f8301169050919050565b7f4e487b71000000000000000000000000000000000000000000000000000000005f52604160045260245ffd5b6200040182620003b9565b810181811067ffffffffffffffff82111715620004235762000422620003c9565b5b80604052505050565b5f620004376200032c565b9050620004458282620003f6565b919050565b5f67ffffffffffffffff821115620004675762000466620003c9565b5b6200047282620003b9565b9050602081019050919050565b5f5b838110156200049e57808201518184015260208101905062000481565b5f8484015250505050565b5f620004bf620004b9846200044a565b6200042c565b905082815260208101848484011115620004de57620004dd620003b5565b5b620004eb8482856200047f565b509392505050565b5f82601f8301126200050a5762000509620003b1565b5b81516200051c848260208601620004a9565b91505092915050565b5f805f606084860312156200053f576200053e62000335565b5b5f6200054e868287016200039b565b935050602084015167ffffffffffffffff81111562000572576200057162000339565b5b6200058086828701620004f3565b925050604084015167ffffffffffffffff811115620005a457620005a362000339565b5b620005b286828701620004f3565b9150509250925092565b5f81519050919050565b7f4e487b71000000000000000000000000000000000000000000000000000000005f52602260045260245ffd5b5f60028204905060018216806200060b57607f821691505b602082108103620006215762000620620005c6565b5b50919050565b5f819050815f5260205f209050919050565b5f6020601f8301049050919050565b5f82821b905092915050565b5f60088302620006857fffffffffffffffffffffffffffffffffffffffffffffffffffffffffffffffff8262000648565b62000691868362000648565b95508019841693508086168417925050509392505050565b5f819050919050565b5f819050919050565b5f620006db620006d5620006cf84620006a9565b620006b2565b620006a9565b9050919050565b5f819050919050565b620006f683620006bb565b6200070e6200070582620006e2565b84845462000654565b825550505050565b5f90565b6200072462000716565b62000731818484620006eb565b505050565b5b8181101562000758576200074c5f826200071a565b60018101905062000737565b5050565b601f821115620007a757620007718162000627565b6200077c8462000639565b810160208510156200078c578190505b620007a46200079b8562000639565b83018262000736565b50505b505050565b5f82821c905092915050565b5f620007c95f1984600802620007ac565b1980831691505092915050565b5f620007e38383620007b8565b9150826002028217905092915050565b620007fe82620005bc565b67ffffffffffffffff8111156200081a5762000819620003c9565b5b620008268254620005f3565b620008338282856200075c565b5f60209050601f83116001811462000869575f841562000854578287015190505b620008608582620007d6565b865550620008cf565b601f198416620008798662000627565b5f5b82811015620008a2578489015182556001820191506020850194506020810190506200087b565b86831015620008c25784890151620008be601f891682620007b8565b8355505b6001600288020188555050505b505050505050565b620008e2816200035c565b82525050565b5f602082019050620008fd5f830184620008d7565b92915050565b60805160a051612766620009255f395f61094401525f61097501526127665ff3fe608060405234801561000f575f80fd5b5060043610610204575f3560e01c80638da5cb5b11610118578063bd9d518b116100ab578063d905777e1161007a578063d905777e146106c7578063dd62ed3e146106f7578063e3363d4e14610727578063ef8b30f714610745578063f2fde38b1461077557610204565b8063bd9d518b14610607578063c63d75b614610637578063c6e6f59214610667578063ce96cb771461069757610204565b8063a9059cbb116100e7578063a9059cbb14610547578063b3d7f6b914610577578063b460af94146105a7578063ba087652146105d757610204565b80638da5cb5b146104bb57806394bf804d146104d957806395d89b4114610509578063a59aa5a61461052757610204565b8063313ce5671161019b578063537bb1371161016a578063537bb137146103ee5780635b7c2dad1461041e5780636e553f651461045157806370a0823114610481578063715018a6146104b157610204565b8063313ce5671461035257806338d52e0f14610370578063402d267d1461038e5780634cdad506146103be57610204565b80630a28a477116101d75780630a28a477146102a457806318160ddd146102d457806323b872dd146102f2578063240be9441461032257610204565b806301e1d1141461020857806306fdde031461022657806307a2d13a14610244578063095ea7b314610274575b5f80fd5b610210610791565b60405161021d9190611efb565b60405180910390f35b61022e610816565b60405161023b9190611f9e565b60405180910390f35b61025e60048036038101906102599190611fec565b6108a6565b60405161026b9190611efb565b60405180910390f35b61028e60048036038101906102899190612071565b6108b8565b60405161029b91906120c9565b60405180910390f35b6102be60048036038101906102b99190611fec565b6108da565b6040516102cb9190611efb565b60405180910390f35b6102dc6108ed565b6040516102e99190611efb565b60405180910390f35b61030c600480360381019061030791906120e2565b6108f6565b60405161031991906120c9565b60405180910390f35b61033c60048036038101906103379190612132565b610924565b6040516103499190611efb565b60405180910390f35b61035a610939565b6040516103679190612178565b60405180910390f35b610378610972565b60405161038591906121a0565b60405180910390f35b6103a860048036038101906103a39190612132565b610999565b6040516103b59190611efb565b60405180910390f35b6103d860048036038101906103d39190611fec565b6109c2565b6040516103e59190611efb565b60405180910390f35b61040860048036038101906104039190612132565b6109d4565b6040516104159190611efb565b60405180910390f35b61043860048036038101906104339190612132565b610ab8565b60405161044894939291906121b9565b60405180910390f35b61046b600480360381019061046691906121fc565b610b24565b6040516104789190611efb565b60405180910390f35b61049b60048036038101906104969190612132565b610c50565b6040516104a89190611efb565b60405180910390f35b6104b9610c95565b005b6104c3610ca8565b6040516104d091906121a0565b60405180910390f35b6104f360048036038101906104ee91906121fc565b610cd0565b6040516105009190611efb565b60405180910390f35b610511610d50565b60405161051e9190611f9e565b60405180910390f35b61052f610de0565b60405161053e9392919061223a565b60405180910390f35b610561600480360381019061055c9190612071565b610e01565b60405161056e91906120c9565b60405180910390f35b610591600480360381019061058c9190611fec565b610e23565b60405161059e9190611efb565b60405180910390f35b6105c160048036038101906105bc919061226f565b610e36565b6040516105ce9190611efb565b60405180910390f35b6105f160048036038101906105ec919061226f565b610e9b565b6040516105fe9190611efb565b60405180910390f35b610621600480360381019061061c9190612132565b610f1d565b60405161062e9190611efb565b60405180910390f35b610651600480360381019061064c9190612132565b610f32565b60405161065e9190611efb565b60405180910390f35b610681600480360381019061067c9190611fec565b610f5b565b60405161068e9190611efb565b60405180910390f35b6106b160048036038101906106ac9190612132565b610f6d565b6040516106be9190611efb565b60405180910390f35b6106e160048036038101906106dc9190612132565b610f86565b6040516106ee9190611efb565b60405180910390f35b610711600480360381019061070c91906122bf565b610f97565b60405161071e9190611efb565b60405180910390f35b61072f611019565b60405161073c9190611efb565b60405180910390f35b61075f600480360381019061075a9190611fec565b61101f565b60405161076c9190611efb565b60405180910390f35b61078f600480360381019061078a9190612132565b611031565b005b5f61079a610972565b73ffffffffffffffffffffffffffffffffffffffff166370a08231306040518263ffffffff1660e01b81526004016107d291906121a0565b602060405180830381865afa1580156107ed573d5f803e3d5ffd5b505050506040513d601f19601f820116820180604052508101906108119190612311565b905090565b60606003805461082590612369565b80601f016020809104026020016040519081016040528092919081815260200182805461085190612369565b801561089c5780601f106108735761010080835404028352916020019161089c565b820191905f5260205f20905b81548152906001019060200180831161087f57829003601f168201915b5050505050905090565b5f6108b1825f6110b5565b9050919050565b5f806108c261110d565b90506108cf818585611114565b600191505092915050565b5f6108e6826001611126565b9050919050565b5f600254905090565b5f8061090061110d565b905061090d85828561117e565b610918858585611211565b60019150509392505050565b6006602052805f5260405f205f915090505481565b5f610942611301565b7f000000000000000000000000000000000000000000000000000000000000000061096d91906123c6565b905090565b5f7f0000000000000000000000000000000000000000000000000000000000000000905090565b5f7fffffffffffffffffffffffffffffffffffffffffffffffffffffffffffffffff9050919050565b5f6109cd825f6110b5565b9050919050565b5f806109df83610c50565b90505f811480610a2b57505f60075f8573ffffffffffffffffffffffffffffffffffffffff1673ffffffffffffffffffffffffffffffffffffffff1681526020019081526020015f2054145b15610a39575f915050610ab3565b5f60075f8573ffffffffffffffffffffffffffffffffffffffff1673ffffffffffffffffffffffffffffffffffffffff1681526020019081526020015f205442610a8391906123fa565b905064496cebb8008161035284610a9a919061242d565b610aa4919061242d565b610aae919061249b565b925050505b919050565b5f805f80610ac585610c50565b9350610ad0846108a6565b925060065f8673ffffffffffffffffffffffffffffffffffffffff1673ffffffffffffffffffffffffffffffffffffffff1681526020019081526020015f20549150610b1b856109d4565b90509193509193565b5f610b2f8383611305565b90505f60065f8473ffffffffffffffffffffffffffffffffffffffff1673ffffffffffffffffffffffffffffffffffffffff1681526020019081526020015f205403610bb8574260065f8473ffffffffffffffffffffffffffffffffffffffff1673ffffffffffffffffffffffffffffffffffffffff1681526020019081526020015f20819055505b4260075f8473ffffffffffffffffffffffffffffffffffffffff1673ffffffffffffffffffffffffffffffffffffffff1681526020019081526020015f20819055508173ffffffffffffffffffffffffffffffffffffffff167f73a19dd210f1a7f902193214c0ee91dd35ee5b4d920cba8d519eca65a7b488ca8483604051610c429291906124cb565b60405180910390a292915050565b5f805f8373ffffffffffffffffffffffffffffffffffffffff1673ffffffffffffffffffffffffffffffffffffffff1681526020019081526020015f20549050919050565b610c9d611385565b610ca65f61140c565b565b5f60055f9054906101000a900473ffffffffffffffffffffffffffffffffffffffff16905090565b5f80610cdb83610f32565b905080841115610d26578284826040517f284ff667000000000000000000000000000000000000000000000000000000008152600401610d1d939291906124f2565b60405180910390fd5b5f610d3085610e23565b9050610d45610d3d61110d565b8583886114cf565b809250505092915050565b606060048054610d5f90612369565b80601f0160208091040260200160405190810160405280929190818152602001828054610d8b90612369565b8015610dd65780601f10610dad57610100808354040283529160200191610dd6565b820191905f5260205f20905b815481529060010190602001808311610db957829003601f168201915b5050505050905090565b5f805f610deb610791565b9250610df56108ed565b91506103529050909192565b5f80610e0b61110d565b9050610e18818585611211565b600191505092915050565b5f610e2f8260016110b5565b9050919050565b5f610e42848484611550565b90508173ffffffffffffffffffffffffffffffffffffffff167f92ccf450a286a957af52509bc1c9939d1a6a481783e142e41e2499f0bb66ebc68583604051610e8c9291906124cb565b60405180910390a29392505050565b5f80610ea683610f86565b905080851115610ef1578285826040517fb94abeec000000000000000000000000000000000000000000000000000000008152600401610ee8939291906124f2565b60405180910390fd5b5f610efb866109c2565b9050610f11610f0861110d565b8686848a6115d2565b80925050509392505050565b6007602052805f5260405f205f915090505481565b5f7fffffffffffffffffffffffffffffffffffffffffffffffffffffffffffffffff9050919050565b5f610f66825f611126565b9050919050565b5f610f7f610f7a83610f86565b6109c2565b9050919050565b5f610f9082610c50565b9050919050565b5f60015f8473ffffffffffffffffffffffffffffffffffffffff1673ffffffffffffffffffffffffffffffffffffffff1681526020019081526020015f205f8373ffffffffffffffffffffffffffffffffffffffff1673ffffffffffffffffffffffffffffffffffffffff1681526020019081526020015f2054905092915050565b61035281565b5f61102a825f611126565b9050919050565b611039611385565b5f73ffffffffffffffffffffffffffffffffffffffff168173ffffffffffffffffffffffffffffffffffffffff16036110a9575f6040517f1e4fbdf70000000000000000000000000000000000000000000000000000000081526004016110a091906121a0565b60405180910390fd5b6110b28161140c565b50565b5f61110560016110c3610791565b6110cd9190612527565b6110d5611301565b600a6110e19190612689565b6110e96108ed565b6110f39190612527565b84866116aa909392919063ffffffff16565b905092915050565b5f33905090565b61112183838360016116f7565b505050565b5f611176611132611301565b600a61113e9190612689565b6111466108ed565b6111509190612527565b600161115a610791565b6111649190612527565b84866116aa909392919063ffffffff16565b905092915050565b5f6111898484610f97565b90507fffffffffffffffffffffffffffffffffffffffffffffffffffffffffffffffff81101561120b57818110156111fc578281836040517ffb8f41b20000000000000000000000000000000000000000000000000000000081526004016111f3939291906124f2565b60405180910390fd5b61120a84848484035f6116f7565b5b50505050565b5f73ffffffffffffffffffffffffffffffffffffffff168373ffffffffffffffffffffffffffffffffffffffff1603611281575f6040517f96c6fd1e00000000000000000000000000000000000000000000000000000000815260040161127891906121a0565b60405180910390fd5b5f73ffffffffffffffffffffffffffffffffffffffff168273ffffffffffffffffffffffffffffffffffffffff16036112f1575f6040517fec442f050000000000000000000000000000000000000000000000000000000081526004016112e891906121a0565b60405180910390fd5b6112fc8383836118c6565b505050565b5f90565b5f8061131083610999565b90508084111561135b578284826040517f79012fb2000000000000000000000000000000000000000000000000000000008152600401611352939291906124f2565b60405180910390fd5b5f6113658561101f565b905061137a61137261110d565b8587846114cf565b809250505092915050565b61138d61110d565b73ffffffffffffffffffffffffffffffffffffffff166113ab610ca8565b73ffffffffffffffffffffffffffffffffffffffff161461140a576113ce61110d565b6040517f118cdaa700000000000000000000000000000000000000000000000000000000815260040161140191906121a0565b60405180910390fd5b565b5f60055f9054906101000a900473ffffffffffffffffffffffffffffffffffffffff1690508160055f6101000a81548173ffffffffffffffffffffffffffffffffffffffff021916908373ffffffffffffffffffffffffffffffffffffffff1602179055508173ffffffffffffffffffffffffffffffffffffffff168173ffffffffffffffffffffffffffffffffffffffff167f8be0079c531659141344cd1fd0a4f28419497f9722a3daafe3b4186f6b6457e060405160405180910390a35050565b6114d98483611adf565b6114e38382611af6565b8273ffffffffffffffffffffffffffffffffffffffff168473ffffffffffffffffffffffffffffffffffffffff167fdcbc1c05240f31ff3ad067ef1ee35ce4997762752e3a095284754544f4c709d784846040516115429291906124cb565b60405180910390a350505050565b5f8061155b83610f6d565b9050808511156115a6578285826040517ffe9cceec00000000000000000000000000000000000000000000000000000000815260040161159d939291906124f2565b60405180910390fd5b5f6115b0866108da565b90506115c66115bd61110d565b868689856115d2565b80925050509392505050565b8273ffffffffffffffffffffffffffffffffffffffff168573ffffffffffffffffffffffffffffffffffffffff16146116115761161083868361117e565b5b61161b8382611b75565b6116258483611bf4565b8273ffffffffffffffffffffffffffffffffffffffff168473ffffffffffffffffffffffffffffffffffffffff168673ffffffffffffffffffffffffffffffffffffffff167ffbde797d201c681b91056529119e0b02407c7bb96a4a2c75c01fc9667232c8db858560405161169b9291906124cb565b60405180910390a45050505050565b5f6116d86116b783611c0a565b80156116d357505f84806116ce576116cd61246e565b5b868809115b611c37565b6116e3868686611c42565b6116ed9190612527565b9050949350505050565b5f73ffffffffffffffffffffffffffffffffffffffff168473ffffffffffffffffffffffffffffffffffffffff1603611767575f6040517fe602df0500000000000000000000000000000000000000000000000000000000815260040161175e91906121a0565b60405180910390fd5b5f73ffffffffffffffffffffffffffffffffffffffff168373ffffffffffffffffffffffffffffffffffffffff16036117d7575f6040517f94280d620000000000000000000000000000000000000000000000000000000081526004016117ce91906121a0565b60405180910390fd5b8160015f8673ffffffffffffffffffffffffffffffffffffffff1673ffffffffffffffffffffffffffffffffffffffff1681526020019081526020015f205f8573ffffffffffffffffffffffffffffffffffffffff1673ffffffffffffffffffffffffffffffffffffffff1681526020019081526020015f208190555080156118c0578273ffffffffffffffffffffffffffffffffffffffff168473ffffffffffffffffffffffffffffffffffffffff167f8c5be1e5ebec7d5bd14f71427d1e84f3dd0314c0f7b2291e5b200ac8c7c3b925846040516118b79190611efb565b60405180910390a35b50505050565b5f73ffffffffffffffffffffffffffffffffffffffff168373ffffffffffffffffffffffffffffffffffffffff1603611916578060025f82825461190a9190612527565b925050819055506119e4565b5f805f8573ffffffffffffffffffffffffffffffffffffffff1673ffffffffffffffffffffffffffffffffffffffff1681526020019081526020015f205490508181101561199f578381836040517fe450d38c000000000000000000000000000000000000000000000000000000008152600401611996939291906124f2565b60405180910390fd5b8181035f808673ffffffffffffffffffffffffffffffffffffffff1673ffffffffffffffffffffffffffffffffffffffff1681526020019081526020015f2081905550505b5f73ffffffffffffffffffffffffffffffffffffffff168273ffffffffffffffffffffffffffffffffffffffff1603611a2b578060025f8282540392505081905550611a75565b805f808473ffffffffffffffffffffffffffffffffffffffff1673ffffffffffffffffffffffffffffffffffffffff1681526020019081526020015f205f82825401925050819055505b8173ffffffffffffffffffffffffffffffffffffffff168373ffffffffffffffffffffffffffffffffffffffff167fddf252ad1be2c89b69c2b068fc378daa952ba7f163c4a11628f55a4df523b3ef83604051611ad29190611efb565b60405180910390a3505050565b611af2611aea610972565b833084611d21565b5050565b5f73ffffffffffffffffffffffffffffffffffffffff168273ffffffffffffffffffffffffffffffffffffffff1603611b66575f6040517fec442f05000000000000000000000000000000000000000000000000000000008152600401611b5d91906121a0565b60405180910390fd5b611b715f83836118c6565b5050565b5f73ffffffffffffffffffffffffffffffffffffffff168273ffffffffffffffffffffffffffffffffffffffff1603611be5575f6040517f96c6fd1e000000000000000000000000000000000000000000000000000000008152600401611bdc91906121a0565b60405180910390fd5b611bf0825f836118c6565b5050565b611c06611bff610972565b8383611d76565b5050565b5f60016002836003811115611c2257611c216126d3565b5b611c2c9190612700565b60ff16149050919050565b5f8115159050919050565b5f805f611c4f8686611dc9565b915091505f8203611c7457838181611c6a57611c6961246e565b5b0492505050611d1a565b818411611c9357611c92611c8d5f861460126011611de6565b611dff565b5b5f8486880990508181118303925080820391505f855f038616905080860495508083049250600181825f0304019050808402831792505f600287600302189050808702600203810290508087026002038102905080870260020381029050808702600203810290508087026002038102905080870260020381029050808402955050505050505b9392505050565b611d2f848484846001611e10565b611d7057836040517f5274afe7000000000000000000000000000000000000000000000000000000008152600401611d6791906121a0565b60405180910390fd5b50505050565b611d838383836001611e81565b611dc457826040517f5274afe7000000000000000000000000000000000000000000000000000000008152600401611dbb91906121a0565b60405180910390fd5b505050565b5f805f198385098385029150818110828203039250509250929050565b5f611df084611c37565b82841802821890509392505050565b634e487b715f52806020526024601cfd5b5f806323b872dd60e01b9050604051815f525f1960601c87166004525f1960601c86166024528460445260205f60645f808c5af1925060015f51148316611e6e578383151615611e62573d5f823e3d81fd5b5f883b113d1516831692505b806040525f606052505095945050505050565b5f8063a9059cbb60e01b9050604051815f525f1960601c86166004528460245260205f60445f808b5af1925060015f51148316611ed5578383151615611ec9573d5f823e3d81fd5b5f873b113d1516831692505b806040525050949350505050565b5f819050919050565b611ef581611ee3565b82525050565b5f602082019050611f0e5f830184611eec565b92915050565b5f81519050919050565b5f82825260208201905092915050565b5f5b83811015611f4b578082015181840152602081019050611f30565b5f8484015250505050565b5f601f19601f8301169050919050565b5f611f7082611f14565b611f7a8185611f1e565b9350611f8a818560208601611f2e565b611f9381611f56565b840191505092915050565b5f6020820190508181035f830152611fb68184611f66565b905092915050565b5f80fd5b611fcb81611ee3565b8114611fd5575f80fd5b50565b5f81359050611fe681611fc2565b92915050565b5f6020828403121561200157612000611fbe565b5b5f61200e84828501611fd8565b91505092915050565b5f73ffffffffffffffffffffffffffffffffffffffff82169050919050565b5f61204082612017565b9050919050565b61205081612036565b811461205a575f80fd5b50565b5f8135905061206b81612047565b92915050565b5f806040838503121561208757612086611fbe565b5b5f6120948582860161205d565b92505060206120a585828601611fd8565b9150509250929050565b5f8115159050919050565b6120c3816120af565b82525050565b5f6020820190506120dc5f8301846120ba565b92915050565b5f805f606084860312156120f9576120f8611fbe565b5b5f6121068682870161205d565b93505060206121178682870161205d565b925050604061212886828701611fd8565b9150509250925092565b5f6020828403121561214757612146611fbe565b5b5f6121548482850161205d565b91505092915050565b5f60ff82169050919050565b6121728161215d565b82525050565b5f60208201905061218b5f830184612169565b92915050565b61219a81612036565b82525050565b5f6020820190506121b35f830184612191565b92915050565b5f6080820190506121cc5f830187611eec565b6121d96020830186611eec565b6121e66040830185611eec565b6121f36060830184611eec565b95945050505050565b5f806040838503121561221257612211611fbe565b5b5f61221f85828601611fd8565b92505060206122308582860161205d565b9150509250929050565b5f60608201905061224d5f830186611eec565b61225a6020830185611eec565b6122676040830184611eec565b949350505050565b5f805f6060848603121561228657612285611fbe565b5b5f61229386828701611fd8565b93505060206122a48682870161205d565b92505060406122b58682870161205d565b9150509250925092565b5f80604083850312156122d5576122d4611fbe565b5b5f6122e28582860161205d565b92505060206122f38582860161205d565b9150509250929050565b5f8151905061230b81611fc2565b92915050565b5f6020828403121561232657612325611fbe565b5b5f612333848285016122fd565b91505092915050565b7f4e487b71000000000000000000000000000000000000000000000000000000005f52602260045260245ffd5b5f600282049050600182168061238057607f821691505b6020821081036123935761239261233c565b5b50919050565b7f4e487b71000000000000000000000000000000000000000000000000000000005f52601160045260245ffd5b5f6123d08261215d565b91506123db8361215d565b9250828201905060ff8111156123f4576123f3612399565b5b92915050565b5f61240482611ee3565b915061240f83611ee3565b925082820390508181111561242757612426612399565b5b92915050565b5f61243782611ee3565b915061244283611ee3565b925082820261245081611ee3565b9150828204841483151761246757612466612399565b5b5092915050565b7f4e487b71000000000000000000000000000000000000000000000000000000005f52601260045260245ffd5b5f6124a582611ee3565b91506124b083611ee3565b9250826124c0576124bf61246e565b5b828204905092915050565b5f6040820190506124de5f830185611eec565b6124eb6020830184611eec565b9392505050565b5f6060820190506125055f830186612191565b6125126020830185611eec565b61251f6040830184611eec565b949350505050565b5f61253182611ee3565b915061253c83611ee3565b925082820190508082111561255457612553612399565b5b92915050565b5f8160011c9050919050565b5f808291508390505b60018511156125af5780860481111561258b5761258a612399565b5b600185161561259a5780820291505b80810290506125a88561255a565b945061256f565b94509492505050565b5f826125c75760019050612682565b816125d4575f9050612682565b81600181146125ea57600281146125f457612623565b6001915050612682565b60ff84111561260657612605612399565b5b8360020a91508482111561261d5761261c612399565b5b50612682565b5060208310610133831016604e8410600b84101617156126585782820a90508381111561265357612652612399565b5b612682565b6126658484846001612566565b9250905081840481111561267c5761267b612399565b5b81810290505b9392505050565b5f61269382611ee3565b915061269e8361215d565b92506126cb7fffffffffffffffffffffffffffffffffffffffffffffffffffffffffffffffff84846125b8565b905092915050565b7f4e487b71000000000000000000000000000000000000000000000000000000005f52602160045260245ffd5b5f61270a8261215d565b91506127158361215d565b9250826127255761272461246e565b5b82820690509291505056fea2646970667358221220b5643fafec016e4fd27b1b0e7593aa9d4c40279dd76e4fa09a2fa7ca57f6c14564736f6c63430008180033","linkReferences":{}},"methodIdentifiers":{"APY_BPS()":"e3363d4e","allowance(address,address)":"dd62ed3e","approve(address,uint256)":"095ea7b3","asset()":"38d52e0f","balanceOf(address)":"70a08231","convertToAssets(uint256)":"07a2d13a","convertToShares(uint256)":"c6e6f592","decimals()":"313ce567","deposit(uint256,address)":"6e553f65","depositTimestamps(address)":"240be944","getPendingYield(address)":"537bb137","getUserPosition(address)":"5b7c2dad","getVaultStats()":"a59aa5a6","lastClaimTimestamp(address)":"bd9d518b","maxDeposit(address)":"402d267d","maxMint(address)":"c63d75b6","maxRedeem(address)":"d905777e","maxWithdraw(address)":"ce96cb77","mint(uint256,address)":"94bf804d","name()":"06fdde03","owner()":"8da5cb5b","previewDeposit(uint256)":"ef8b30f7","previewMint(uint256)":"b3d7f6b9","previewRedeem(uint256)":"4cdad506","previewWithdraw(uint256)":"0a28a477","redeem(uint256,address,address)":"ba087652","renounceOwnership()":"715018a6","symbol()":"95d89b41","totalAssets()":"01e1d114","totalSupply()":"18160ddd","transfer(address,uint256)":"a9059cbb","transferFrom(address,address,uint256)":"23b872dd","transferOwnership(address)":"f2fde38b","withdraw(uint256,address,address)":"b460af94"},"id":34}